###############################################################################
#                                                                             #
# IAR ELF Linker V6.60.2.5449/W32 for ARM               17/Feb/2017  12:43:00 #
# Copyright 2007-2013 IAR Systems AB.                                         #
#                                                                             #
#    Output file  =  C:\Users\cheny_000\Desktop\a\ce4053\Micrium\Software\Eva #
#                    lBoards\TI\LM3S9B92-EVALBOT\IAR\uCOS-III-CE4053_PG\Flash #
#                    \Exe\uCOS-III-Ex4.out                                    #
#    Map file     =  C:\Users\cheny_000\Desktop\a\ce4053\Micrium\Software\Eva #
#                    lBoards\TI\LM3S9B92-EVALBOT\IAR\uCOS-III-CE4053_PG\Flash #
#                    \List\uCOS-III-Ex4.map                                   #
#    Command line =  C:\Users\cheny_000\Desktop\a\ce4053\Micrium\Software\Eva #
#                    lBoards\TI\LM3S9B92-EVALBOT\IAR\uCOS-III-CE4053_PG\Flash #
#                    \Obj\adc.o C:\Users\cheny_000\Desktop\a\ce4053\Micrium\S #
#                    oftware\EvalBoards\TI\LM3S9B92-EVALBOT\IAR\uCOS-III-CE40 #
#                    53_PG\Flash\Obj\app.o C:\Users\cheny_000\Desktop\a\ce405 #
#                    3\Micrium\Software\EvalBoards\TI\LM3S9B92-EVALBOT\IAR\uC #
#                    OS-III-CE4053_PG\Flash\Obj\app_vect.o                    #
#                    C:\Users\cheny_000\Desktop\a\ce4053\Micrium\Software\Eva #
#                    lBoards\TI\LM3S9B92-EVALBOT\IAR\uCOS-III-CE4053_PG\Flash #
#                    \Obj\bsp.o C:\Users\cheny_000\Desktop\a\ce4053\Micrium\S #
#                    oftware\EvalBoards\TI\LM3S9B92-EVALBOT\IAR\uCOS-III-CE40 #
#                    53_PG\Flash\Obj\bsp_dac.o C:\Users\cheny_000\Desktop\a\c #
#                    e4053\Micrium\Software\EvalBoards\TI\LM3S9B92-EVALBOT\IA #
#                    R\uCOS-III-CE4053_PG\Flash\Obj\bsp_display.o             #
#                    C:\Users\cheny_000\Desktop\a\ce4053\Micrium\Software\Eva #
#                    lBoards\TI\LM3S9B92-EVALBOT\IAR\uCOS-III-CE4053_PG\Flash #
#                    \Obj\bsp_int.o C:\Users\cheny_000\Desktop\a\ce4053\Micri #
#                    um\Software\EvalBoards\TI\LM3S9B92-EVALBOT\IAR\uCOS-III- #
#                    CE4053_PG\Flash\Obj\bsp_io.o                             #
#                    C:\Users\cheny_000\Desktop\a\ce4053\Micrium\Software\Eva #
#                    lBoards\TI\LM3S9B92-EVALBOT\IAR\uCOS-III-CE4053_PG\Flash #
#                    \Obj\bsp_motor.o C:\Users\cheny_000\Desktop\a\ce4053\Mic #
#                    rium\Software\EvalBoards\TI\LM3S9B92-EVALBOT\IAR\uCOS-II #
#                    I-CE4053_PG\Flash\Obj\bsp_sensors.o                      #
#                    C:\Users\cheny_000\Desktop\a\ce4053\Micrium\Software\Eva #
#                    lBoards\TI\LM3S9B92-EVALBOT\IAR\uCOS-III-CE4053_PG\Flash #
#                    \Obj\can.o C:\Users\cheny_000\Desktop\a\ce4053\Micrium\S #
#                    oftware\EvalBoards\TI\LM3S9B92-EVALBOT\IAR\uCOS-III-CE40 #
#                    53_PG\Flash\Obj\comp.o C:\Users\cheny_000\Desktop\a\ce40 #
#                    53\Micrium\Software\EvalBoards\TI\LM3S9B92-EVALBOT\IAR\u #
#                    COS-III-CE4053_PG\Flash\Obj\cpu_.o                       #
#                    C:\Users\cheny_000\Desktop\a\ce4053\Micrium\Software\Eva #
#                    lBoards\TI\LM3S9B92-EVALBOT\IAR\uCOS-III-CE4053_PG\Flash #
#                    \Obj\cpu_a.o C:\Users\cheny_000\Desktop\a\ce4053\Micrium #
#                    \Software\EvalBoards\TI\LM3S9B92-EVALBOT\IAR\uCOS-III-CE #
#                    4053_PG\Flash\Obj\cpu_bsp.o                              #
#                    C:\Users\cheny_000\Desktop\a\ce4053\Micrium\Software\Eva #
#                    lBoards\TI\LM3S9B92-EVALBOT\IAR\uCOS-III-CE4053_PG\Flash #
#                    \Obj\cpu_c.o C:\Users\cheny_000\Desktop\a\ce4053\Micrium #
#                    \Software\EvalBoards\TI\LM3S9B92-EVALBOT\IAR\uCOS-III-CE #
#                    4053_PG\Flash\Obj\cpu_core.o                             #
#                    C:\Users\cheny_000\Desktop\a\ce4053\Micrium\Software\Eva #
#                    lBoards\TI\LM3S9B92-EVALBOT\IAR\uCOS-III-CE4053_PG\Flash #
#                    \Obj\epi.o C:\Users\cheny_000\Desktop\a\ce4053\Micrium\S #
#                    oftware\EvalBoards\TI\LM3S9B92-EVALBOT\IAR\uCOS-III-CE40 #
#                    53_PG\Flash\Obj\ethernet.o C:\Users\cheny_000\Desktop\a\ #
#                    ce4053\Micrium\Software\EvalBoards\TI\LM3S9B92-EVALBOT\I #
#                    AR\uCOS-III-CE4053_PG\Flash\Obj\fatfs.o                  #
#                    C:\Users\cheny_000\Desktop\a\ce4053\Micrium\Software\Eva #
#                    lBoards\TI\LM3S9B92-EVALBOT\IAR\uCOS-III-CE4053_PG\Flash #
#                    \Obj\flash.o C:\Users\cheny_000\Desktop\a\ce4053\Micrium #
#                    \Software\EvalBoards\TI\LM3S9B92-EVALBOT\IAR\uCOS-III-CE #
#                    4053_PG\Flash\Obj\gpio.o C:\Users\cheny_000\Desktop\a\ce #
#                    4053\Micrium\Software\EvalBoards\TI\LM3S9B92-EVALBOT\IAR #
#                    \uCOS-III-CE4053_PG\Flash\Obj\hibernate.o                #
#                    C:\Users\cheny_000\Desktop\a\ce4053\Micrium\Software\Eva #
#                    lBoards\TI\LM3S9B92-EVALBOT\IAR\uCOS-III-CE4053_PG\Flash #
#                    \Obj\i2c.o C:\Users\cheny_000\Desktop\a\ce4053\Micrium\S #
#                    oftware\EvalBoards\TI\LM3S9B92-EVALBOT\IAR\uCOS-III-CE40 #
#                    53_PG\Flash\Obj\i2s.o C:\Users\cheny_000\Desktop\a\ce405 #
#                    3\Micrium\Software\EvalBoards\TI\LM3S9B92-EVALBOT\IAR\uC #
#                    OS-III-CE4053_PG\Flash\Obj\interrupt.o                   #
#                    C:\Users\cheny_000\Desktop\a\ce4053\Micrium\Software\Eva #
#                    lBoards\TI\LM3S9B92-EVALBOT\IAR\uCOS-III-CE4053_PG\Flash #
#                    \Obj\lib_ascii.o C:\Users\cheny_000\Desktop\a\ce4053\Mic #
#                    rium\Software\EvalBoards\TI\LM3S9B92-EVALBOT\IAR\uCOS-II #
#                    I-CE4053_PG\Flash\Obj\lib_math.o                         #
#                    C:\Users\cheny_000\Desktop\a\ce4053\Micrium\Software\Eva #
#                    lBoards\TI\LM3S9B92-EVALBOT\IAR\uCOS-III-CE4053_PG\Flash #
#                    \Obj\lib_mem.o C:\Users\cheny_000\Desktop\a\ce4053\Micri #
#                    um\Software\EvalBoards\TI\LM3S9B92-EVALBOT\IAR\uCOS-III- #
#                    CE4053_PG\Flash\Obj\lib_str.o                            #
#                    C:\Users\cheny_000\Desktop\a\ce4053\Micrium\Software\Eva #
#                    lBoards\TI\LM3S9B92-EVALBOT\IAR\uCOS-III-CE4053_PG\Flash #
#                    \Obj\microsd.o C:\Users\cheny_000\Desktop\a\ce4053\Micri #
#                    um\Software\EvalBoards\TI\LM3S9B92-EVALBOT\IAR\uCOS-III- #
#                    CE4053_PG\Flash\Obj\mpu.o C:\Users\cheny_000\Desktop\a\c #
#                    e4053\Micrium\Software\EvalBoards\TI\LM3S9B92-EVALBOT\IA #
#                    R\uCOS-III-CE4053_PG\Flash\Obj\os_app_hooks.o            #
#                    C:\Users\cheny_000\Desktop\a\ce4053\Micrium\Software\Eva #
#                    lBoards\TI\LM3S9B92-EVALBOT\IAR\uCOS-III-CE4053_PG\Flash #
#                    \Obj\os_cfg_app.o C:\Users\cheny_000\Desktop\a\ce4053\Mi #
#                    crium\Software\EvalBoards\TI\LM3S9B92-EVALBOT\IAR\uCOS-I #
#                    II-CE4053_PG\Flash\Obj\os_core.o                         #
#                    C:\Users\cheny_000\Desktop\a\ce4053\Micrium\Software\Eva #
#                    lBoards\TI\LM3S9B92-EVALBOT\IAR\uCOS-III-CE4053_PG\Flash #
#                    \Obj\os_cpu_a.o C:\Users\cheny_000\Desktop\a\ce4053\Micr #
#                    ium\Software\EvalBoards\TI\LM3S9B92-EVALBOT\IAR\uCOS-III #
#                    -CE4053_PG\Flash\Obj\os_cpu_c.o                          #
#                    C:\Users\cheny_000\Desktop\a\ce4053\Micrium\Software\Eva #
#                    lBoards\TI\LM3S9B92-EVALBOT\IAR\uCOS-III-CE4053_PG\Flash #
#                    \Obj\os_dbg.o C:\Users\cheny_000\Desktop\a\ce4053\Micriu #
#                    m\Software\EvalBoards\TI\LM3S9B92-EVALBOT\IAR\uCOS-III-C #
#                    E4053_PG\Flash\Obj\os_flag.o                             #
#                    C:\Users\cheny_000\Desktop\a\ce4053\Micrium\Software\Eva #
#                    lBoards\TI\LM3S9B92-EVALBOT\IAR\uCOS-III-CE4053_PG\Flash #
#                    \Obj\os_int.o C:\Users\cheny_000\Desktop\a\ce4053\Micriu #
#                    m\Software\EvalBoards\TI\LM3S9B92-EVALBOT\IAR\uCOS-III-C #
#                    E4053_PG\Flash\Obj\os_mem.o                              #
#                    C:\Users\cheny_000\Desktop\a\ce4053\Micrium\Software\Eva #
#                    lBoards\TI\LM3S9B92-EVALBOT\IAR\uCOS-III-CE4053_PG\Flash #
#                    \Obj\os_msg.o C:\Users\cheny_000\Desktop\a\ce4053\Micriu #
#                    m\Software\EvalBoards\TI\LM3S9B92-EVALBOT\IAR\uCOS-III-C #
#                    E4053_PG\Flash\Obj\os_mutex.o                            #
#                    C:\Users\cheny_000\Desktop\a\ce4053\Micrium\Software\Eva #
#                    lBoards\TI\LM3S9B92-EVALBOT\IAR\uCOS-III-CE4053_PG\Flash #
#                    \Obj\os_pend_multi.o C:\Users\cheny_000\Desktop\a\ce4053 #
#                    \Micrium\Software\EvalBoards\TI\LM3S9B92-EVALBOT\IAR\uCO #
#                    S-III-CE4053_PG\Flash\Obj\os_prio.o                      #
#                    C:\Users\cheny_000\Desktop\a\ce4053\Micrium\Software\Eva #
#                    lBoards\TI\LM3S9B92-EVALBOT\IAR\uCOS-III-CE4053_PG\Flash #
#                    \Obj\os_q.o C:\Users\cheny_000\Desktop\a\ce4053\Micrium\ #
#                    Software\EvalBoards\TI\LM3S9B92-EVALBOT\IAR\uCOS-III-CE4 #
#                    053_PG\Flash\Obj\os_sem.o C:\Users\cheny_000\Desktop\a\c #
#                    e4053\Micrium\Software\EvalBoards\TI\LM3S9B92-EVALBOT\IA #
#                    R\uCOS-III-CE4053_PG\Flash\Obj\os_stat.o                 #
#                    C:\Users\cheny_000\Desktop\a\ce4053\Micrium\Software\Eva #
#                    lBoards\TI\LM3S9B92-EVALBOT\IAR\uCOS-III-CE4053_PG\Flash #
#                    \Obj\os_task.o C:\Users\cheny_000\Desktop\a\ce4053\Micri #
#                    um\Software\EvalBoards\TI\LM3S9B92-EVALBOT\IAR\uCOS-III- #
#                    CE4053_PG\Flash\Obj\os_tick.o                            #
#                    C:\Users\cheny_000\Desktop\a\ce4053\Micrium\Software\Eva #
#                    lBoards\TI\LM3S9B92-EVALBOT\IAR\uCOS-III-CE4053_PG\Flash #
#                    \Obj\os_time.o C:\Users\cheny_000\Desktop\a\ce4053\Micri #
#                    um\Software\EvalBoards\TI\LM3S9B92-EVALBOT\IAR\uCOS-III- #
#                    CE4053_PG\Flash\Obj\os_tmr.o                             #
#                    C:\Users\cheny_000\Desktop\a\ce4053\Micrium\Software\Eva #
#                    lBoards\TI\LM3S9B92-EVALBOT\IAR\uCOS-III-CE4053_PG\Flash #
#                    \Obj\os_var.o C:\Users\cheny_000\Desktop\a\ce4053\Micriu #
#                    m\Software\EvalBoards\TI\LM3S9B92-EVALBOT\IAR\uCOS-III-C #
#                    E4053_PG\Flash\Obj\OSRecTask.o                           #
#                    C:\Users\cheny_000\Desktop\a\ce4053\Micrium\Software\Eva #
#                    lBoards\TI\LM3S9B92-EVALBOT\IAR\uCOS-III-CE4053_PG\Flash #
#                    \Obj\printf.o C:\Users\cheny_000\Desktop\a\ce4053\Micriu #
#                    m\Software\EvalBoards\TI\LM3S9B92-EVALBOT\IAR\uCOS-III-C #
#                    E4053_PG\Flash\Obj\pwm.o C:\Users\cheny_000\Desktop\a\ce #
#                    4053\Micrium\Software\EvalBoards\TI\LM3S9B92-EVALBOT\IAR #
#                    \uCOS-III-CE4053_PG\Flash\Obj\qei.o                      #
#                    C:\Users\cheny_000\Desktop\a\ce4053\Micrium\Software\Eva #
#                    lBoards\TI\LM3S9B92-EVALBOT\IAR\uCOS-III-CE4053_PG\Flash #
#                    \Obj\ssi.o C:\Users\cheny_000\Desktop\a\ce4053\Micrium\S #
#                    oftware\EvalBoards\TI\LM3S9B92-EVALBOT\IAR\uCOS-III-CE40 #
#                    53_PG\Flash\Obj\sysctl.o C:\Users\cheny_000\Desktop\a\ce #
#                    4053\Micrium\Software\EvalBoards\TI\LM3S9B92-EVALBOT\IAR #
#                    \uCOS-III-CE4053_PG\Flash\Obj\systick.o                  #
#                    C:\Users\cheny_000\Desktop\a\ce4053\Micrium\Software\Eva #
#                    lBoards\TI\LM3S9B92-EVALBOT\IAR\uCOS-III-CE4053_PG\Flash #
#                    \Obj\timer.o C:\Users\cheny_000\Desktop\a\ce4053\Micrium #
#                    \Software\EvalBoards\TI\LM3S9B92-EVALBOT\IAR\uCOS-III-CE #
#                    4053_PG\Flash\Obj\uart.o C:\Users\cheny_000\Desktop\a\ce #
#                    4053\Micrium\Software\EvalBoards\TI\LM3S9B92-EVALBOT\IAR #
#                    \uCOS-III-CE4053_PG\Flash\Obj\udma.o                     #
#                    C:\Users\cheny_000\Desktop\a\ce4053\Micrium\Software\Eva #
#                    lBoards\TI\LM3S9B92-EVALBOT\IAR\uCOS-III-CE4053_PG\Flash #
#                    \Obj\usb.o C:\Users\cheny_000\Desktop\a\ce4053\Micrium\S #
#                    oftware\EvalBoards\TI\LM3S9B92-EVALBOT\IAR\uCOS-III-CE40 #
#                    53_PG\Flash\Obj\watchdog.o --redirect                    #
#                    _Printf=_PrintfFull --redirect _Scanf=_ScanfFull -o      #
#                    C:\Users\cheny_000\Desktop\a\ce4053\Micrium\Software\Eva #
#                    lBoards\TI\LM3S9B92-EVALBOT\IAR\uCOS-III-CE4053_PG\Flash #
#                    \Exe\uCOS-III-Ex4.out --map                              #
#                    C:\Users\cheny_000\Desktop\a\ce4053\Micrium\Software\Eva #
#                    lBoards\TI\LM3S9B92-EVALBOT\IAR\uCOS-III-CE4053_PG\Flash #
#                    \List\uCOS-III-Ex4.map --config                          #
#                    C:\Users\cheny_000\Desktop\a\ce4053\Micrium\Software\Eva #
#                    lBoards\TI\LM3S9B92-EVALBOT\IAR\uCOS-III-CE4053_PG\..\BS #
#                    P\LM3S9B92_Flash.icf --semihosting --entry               #
#                    __iar_program_start --vfe                                #
#                                                                             #
#                                                                             #
###############################################################################

*******************************************************************************
*** RUNTIME MODEL ATTRIBUTES
***

CppFlavor                     = *
__Heap_Handler                = Basic
__SystemLibrary               = DLib
__dlib_dynamic_initialization = normal


*******************************************************************************
*** PLACEMENT SUMMARY
***

"A1":  place at start of [0x00000000-0x0003ffff] { ro section .intvec };
"P1":  place in [from 0x00000000 to 0x0003ffff] { ro };
"P7":  place in [from 0x20000000 to 0x20017fff] { rw, block HEAP, block CSTACK };

  Section             Kind        Address    Size  Object
  -------             ----        -------    ----  ------
"A1":                                       0x11c
  .intvec             const    0x00000000   0x11c  app_vect.o [1]
                             - 0x0000011c   0x11c

"P1":                                      0x65b8
  .text               ro code  0x0000011c  0x116e  xprintffull.o [3]
  .text               ro code  0x0000128a    0x20  xmbtowc.o [3]
  .text               ro code  0x000012aa    0x22  zero_init3.o [5]
  .text               ro code  0x000012cc    0x16  strchr.o [5]
  .rodata             const    0x000012e2     0x2  os_cfg_app.o [1]
  .text               ro code  0x000012e4    0x36  strlen.o [5]
  .rodata             const    0x0000131a     0x2  os_cfg_app.o [1]
  .text               ro code  0x0000131c    0x58  memchr.o [5]
  .text               ro code  0x00001374     0xa  xmbcurmax.o [3]
  .rodata             const    0x0000137e     0x2  os_cfg_app.o [1]
  .text               ro code  0x00001380    0xb0  xxmemxmalloc.o [3]
  .text               ro code  0x00001430    0x1a  xwctomb.o [3]
  .rodata             const    0x0000144a     0x2  os_dbg.o [1]
  .text               ro code  0x0000144c    0x76  ABImemcpy_unaligned.o [5]
  .rodata             const    0x000014c2     0x2  os_dbg.o [1]
  .text               ro code  0x000014c4    0x80  xxmemxfree.o [3]
  .text               ro code  0x00001544    0xee  I64DivMod.o [5]
  .rodata             const    0x00001632     0x2  os_dbg.o [1]
  .text               ro code  0x00001634   0x1a2  DblMul.o [4]
  .text               ro code  0x000017d6    0x42  xdnorm.o [4]
  .text               ro code  0x00001818    0x2e  DblCmpLe.o [4]
  .rodata             const    0x00001846     0x2  os_dbg.o [1]
  .text               ro code  0x00001848    0x2e  DblCmpGe.o [4]
  .rodata             const    0x00001876     0x2  os_dbg.o [1]
  .text               ro code  0x00001878   0x10c  xdscale.o [4]
  .text               ro code  0x00001984    0x58  DblToI32.o [4]
  .text               ro code  0x000019dc    0x30  I32ToDbl.o [4]
  .text               ro code  0x00001a0c   0x180  DblSub.o [4]
  .text               ro code  0x00001b8c   0x246  DblDiv.o [4]
  .rodata             const    0x00001dd2     0x2  os_dbg.o [1]
  .text               ro code  0x00001dd4    0x6c  localeconv.o [3]
  .text               ro code  0x00001e40     0xe  div.o [3]
  .rodata             const    0x00001e4e     0x2  os_dbg.o [1]
  .text               ro code  0x00001e50    0x14  setlocale.o [3]
  .text               ro code  0x00001e64    0x60  xencoding_sb.o [3]
  .text               ro code  0x00001ec4    0x2c  xgetmemchunk.o [3]
  .text               ro code  0x00001ef0     0x2  I64DivZer.o [5]
  .rodata             const    0x00001ef2     0x2  os_dbg.o [1]
  .text               ro code  0x00001ef4    0xd4  DblAdd.o [4]
  .text               ro code  0x00001fc8     0x2  xtls.o [3]
  .rodata             const    0x00001fca     0x2  os_dbg.o [1]
  .text               ro code  0x00001fcc   0x8c8  os_core.o [1]
  .text               ro code  0x00002894   0x160  os_cpu_c.o [1]
  .text               ro code  0x000029f4    0x88  os_prio.o [1]
  .text               ro code  0x00002a7c   0x5c8  os_task.o [1]
  .text               ro code  0x00003044   0x3f4  os_tick.o [1]
  .text               ro code  0x00003438   0x120  os_mem.o [1]
  .text               ro code  0x00003558    0xcc  os_msg.o [1]
  .text               ro code  0x00003624    0x1c  os_mutex.o [1]
  .text               ro code  0x00003640    0x1c  os_q.o [1]
  .text               ro code  0x0000365c   0x2e4  os_tmr.o [1]
  .text               ro code  0x00003940   0x1e8  os_dbg.o [1]
  .text               ro code  0x00003b28    0xe0  os_cfg_app.o [1]
  CODE                ro code  0x00003c08    0x2a  cpu_a.o [1]
  .rodata             const    0x00003c32     0x2  os_dbg.o [1]
  .text               ro code  0x00003c34   0x1a0  cpu_core.o [1]
  CODE                ro code  0x00003dd4    0x84  os_cpu_a.o [1]
  .text               ro code  0x00003e58    0x28  cpu_bsp.o [1]
  .text               ro code  0x00003e80   0x154  os_time.o [1]
  .text               ro code  0x00003fd4    0x66  lib_mem.o [1]
  .rodata             const    0x0000403a     0x2  os_dbg.o [1]
  .text               ro code  0x0000403c    0xa8  bsp.o [1]
  .text               ro code  0x000040e4   0x468  sysctl.o [1]
  .text               ro code  0x0000454c   0x256  bsp_int.o [1]
  .rodata             const    0x000047a2     0x2  os_dbg.o [1]
  .text               ro code  0x000047a4   0x264  bsp_display.o [1]
  .text               ro code  0x00004a08    0xc0  bsp_io.o [1]
  .text               ro code  0x00004ac8   0x154  bsp_sensors.o [1]
  .text               ro code  0x00004c1c   0x1f8  bsp_motor.o [1]
  .text               ro code  0x00004e14   0x13c  cpu_c.o [1]
  .text               ro code  0x00004f50    0xac  i2c.o [1]
  .text               ro code  0x00004ffc   0x2d8  gpio.o [1]
  .text               ro code  0x000052d4    0x98  pwm.o [1]
  .text               ro code  0x0000536c   0x42c  app.o [1]
  .text               ro code  0x00005798   0x310  OSRecTask.o [1]
  .text               ro code  0x00005aa8    0x24  printf.o [3]
  .text               ro code  0x00005acc    0xe0  XShHandles.o [3]
  .text               ro code  0x00005bac    0xd6  xfspos.o [3]
  .rodata             const    0x00005c82     0x2  os_dbg.o [1]
  .text               ro code  0x00005c84    0xb0  fflush.o [3]
  .text               ro code  0x00005d34     0xc  xfgpos.o [3]
  .text               ro code  0x00005d40    0x4c  lseek.o [6]
  .text               ro code  0x00005d8c     0xc  errno.o [3]
  .text               ro code  0x00005d98     0x4  xsyslock_nop.o [3]
  .text               ro code  0x00005d9c    0x10  write.o [6]
  .text               ro code  0x00005dac    0x1e  dwrite.o [6]
  .text               ro code  0x00005dca    0x20  iarwstd.o [6]
  .text               ro code  0x00005dea    0x22  iarwrite.o [6]
  .text               ro code  0x00005e0c    0x6c  iarttio.o [6]
  .text               ro code  0x00005e78     0x8  XShttio.o [3]
  .text               ro code  0x00005e80    0xd4  packbits_init.o [5]
  .text               ro code  0x00005f54     0x6  abort.o [3]
  .rodata             const    0x00005f5a     0x2  os_dbg.o [1]
  .text               ro code  0x00005f5c    0x14  exit.o [6]
  .text               ro code  0x00005f70    0xb6  xfwprep.o [3]
  .text               ro code  0x00006026    0x22  fseek.o [3]
  .text               ro code  0x00006048    0x7c  xfofind.o [3]
  .text               ro code  0x000060c4    0x7a  fclose.o [3]
  .text               ro code  0x0000613e    0x1a  close.o [6]
  .text               ro code  0x00006158    0x16  remove.o [6]
  .rodata             const    0x0000616e     0x2  os_dbg.o [1]
  .rodata             const    0x00006170    0x5c  sysctl.o [1]
  .text               ro code  0x000061cc    0x58  xcloseall.o [3]
  .text               ro code  0x00006224    0x56  fputc.o [3]
  .rodata             const    0x0000627a     0x2  os_dbg.o [1]
  .rodata             const    0x0000627c    0x50  bsp_display.o [1]
  .rodata             const    0x000062cc    0x48  gpio.o [1]
  .rodata             const    0x00006314    0x34  os_dbg.o [1]
  .rodata             const    0x00006348    0x30  os_dbg.o [1]
  .rodata             const    0x00006378    0x2c  os_dbg.o [1]
  .rodata             const    0x000063a4    0x28  os_dbg.o [1]
  .rodata             const    0x000063cc    0x28  os_dbg.o [1]
  .text               ro code  0x000063f4    0x28  data_init.o [5]
  .iar.init_table     const    0x0000641c    0x2c  - Linker created -
  .rodata             const    0x00006448    0x20  os_dbg.o [1]
  .text               ro code  0x00006468    0x1a  cmain.o [5]
  .text               ro code  0x00006482     0x4  low_level_init.o [3]
  .text               ro code  0x00006486     0x4  exit.o [3]
  .rodata             const    0x0000648a     0x2  os_dbg.o [1]
  .text               ro code  0x0000648c     0xe  cexit.o [5]
  .rodata             const    0x0000649a     0x2  os_dbg.o [1]
  .rodata             const    0x0000649c    0x18  os_tmr.o [1]
  .text               ro code  0x000064b4    0x16  xprout.o [3]
  .rodata             const    0x000064ca     0x2  os_dbg.o [1]
  .text               ro code  0x000064cc     0xc  putchar.o [3]
  .rodata             const    0x000064d8    0x14  os_core.o [1]
  .rodata             const    0x000064ec    0x14  os_tick.o [1]
  .rodata             const    0x00006500    0x14  OSRecTask.o [1]
  .rodata             const    0x00006514    0x14  OSRecTask.o [1]
  .rodata             const    0x00006528    0x10  app.o [1]
  .rodata             const    0x00006538    0x10  app.o [1]
  .rodata             const    0x00006548    0x10  app.o [1]
  .rodata             const    0x00006558     0xc  os_core.o [1]
  .rodata             const    0x00006564     0xc  sysctl.o [1]
  .rodata             const    0x00006570     0xc  sysctl.o [1]
  .text               ro code  0x0000657c     0xc  app_vect.o [1]
  .text               ro code  0x00006588     0xc  cstartup_M.o [5]
  .rodata             const    0x00006594     0x8  bsp_display.o [1]
  .rodata             const    0x0000659c     0x8  bsp_display.o [1]
  .rodata             const    0x000065a4     0x8  os_core.o [1]
  .rodata             const    0x000065ac     0x8  os_task.o [1]
  .rodata             const    0x000065b4     0x8  OSRecTask.o [1]
  .rodata             const    0x000065bc     0x4  os_cfg_app.o [1]
  .rodata             const    0x000065c0     0x4  os_cfg_app.o [1]
  .rodata             const    0x000065c4     0x4  os_cfg_app.o [1]
  .rodata             const    0x000065c8     0x4  os_cfg_app.o [1]
  .rodata             const    0x000065cc     0x4  os_cfg_app.o [1]
  .rodata             const    0x000065d0     0x4  os_cfg_app.o [1]
  .rodata             const    0x000065d4     0x4  os_cfg_app.o [1]
  .rodata             const    0x000065d8     0x4  os_cfg_app.o [1]
  .rodata             const    0x000065dc     0x4  os_cfg_app.o [1]
  .rodata             const    0x000065e0     0x4  os_cfg_app.o [1]
  .rodata             const    0x000065e4     0x4  os_cfg_app.o [1]
  .rodata             const    0x000065e8     0x4  os_cfg_app.o [1]
  .rodata             const    0x000065ec     0x4  os_cfg_app.o [1]
  .rodata             const    0x000065f0     0x4  os_cfg_app.o [1]
  .rodata             const    0x000065f4     0x4  os_cfg_app.o [1]
  .rodata             const    0x000065f8     0x4  os_cfg_app.o [1]
  .rodata             const    0x000065fc     0x4  os_cfg_app.o [1]
  .rodata             const    0x00006600     0x4  os_cfg_app.o [1]
  .rodata             const    0x00006604     0x4  os_cfg_app.o [1]
  .rodata             const    0x00006608     0x4  os_cfg_app.o [1]
  .rodata             const    0x0000660c     0x4  os_cfg_app.o [1]
  .rodata             const    0x00006610     0x4  os_cfg_app.o [1]
  .rodata             const    0x00006614     0x4  os_cfg_app.o [1]
  .rodata             const    0x00006618     0x4  os_dbg.o [1]
  .rodata             const    0x0000661c     0x4  os_dbg.o [1]
  .rodata             const    0x00006620     0x4  os_dbg.o [1]
  .rodata             const    0x00006624     0x2  os_dbg.o [1]
  .rodata             const    0x00006626     0x1  os_cfg_app.o [1]
  .rodata             const    0x00006627     0x1  os_cfg_app.o [1]
  .rodata             const    0x00006628     0x1  os_dbg.o [1]
  .rodata             const    0x00006629     0x1  os_dbg.o [1]
  .rodata             const    0x0000662a     0x1  os_dbg.o [1]
  .rodata             const    0x0000662b     0x1  os_dbg.o [1]
  .rodata             const    0x0000662c     0x1  os_dbg.o [1]
  .rodata             const    0x0000662d     0x1  os_dbg.o [1]
  .rodata             const    0x0000662e     0x1  os_dbg.o [1]
  .rodata             const    0x0000662f     0x1  os_dbg.o [1]
  .rodata             const    0x00006630     0x1  os_dbg.o [1]
  .rodata             const    0x00006631     0x1  os_dbg.o [1]
  .rodata             const    0x00006632     0x1  os_dbg.o [1]
  .rodata             const    0x00006633     0x1  os_dbg.o [1]
  .rodata             const    0x00006634     0x1  os_dbg.o [1]
  .rodata             const    0x00006635     0x1  os_dbg.o [1]
  .rodata             const    0x00006636     0x1  os_dbg.o [1]
  .rodata             const    0x00006637     0x1  os_dbg.o [1]
  .rodata             const    0x00006638     0x1  os_dbg.o [1]
  .rodata             const    0x00006639     0x1  os_dbg.o [1]
  .rodata             const    0x0000663a     0x1  os_dbg.o [1]
  .rodata             const    0x0000663b     0x1  os_dbg.o [1]
  .rodata             const    0x0000663c     0x1  os_dbg.o [1]
  .rodata             const    0x0000663d     0x1  os_dbg.o [1]
  .rodata             const    0x0000663e     0x1  os_dbg.o [1]
  .rodata             const    0x0000663f     0x1  os_dbg.o [1]
  .rodata             const    0x00006640     0x1  os_dbg.o [1]
  .rodata             const    0x00006641     0x1  os_dbg.o [1]
  .rodata             const    0x00006642     0x1  os_dbg.o [1]
  .rodata             const    0x00006643     0x1  os_dbg.o [1]
  .rodata             const    0x00006644     0x1  os_dbg.o [1]
  .rodata             const    0x00006645     0x1  os_dbg.o [1]
  .rodata             const    0x00006646     0x1  os_dbg.o [1]
  .rodata             const    0x00006647     0x1  os_dbg.o [1]
  .text               ro code  0x00006648     0x0  cstart_closeall.o [5]
  .rodata             const    0x00006648     0x0  zero_init3.o [5]
  .rodata             const    0x00006648     0x0  packbits_init.o [5]
  Initializer bytes   ro data  0x00006648    0x8a  <for P7 s0>
                             - 0x000066d2  0x65b6

"P7", part 1 of 3:                          0x1ec
  P7 s0                        0x20000000   0x1ec  <Init block>
    __DLIB_PERTHREAD  inited   0x20000000    0x88  localeconv.o [3]
    __DLIB_PERTHREAD  inited   0x20000088    0x74  setlocale.o [3]
    .data             inited   0x200000fc    0x40  xfiles.o [3]
    .data             inited   0x2000013c    0x40  xfiles.o [3]
    .data             inited   0x2000017c    0x40  xfiles.o [3]
    .data             inited   0x200001bc    0x20  xfiles.o [3]
    .data             inited   0x200001dc     0x8  XShttio.o [3]
    .data             inited   0x200001e4     0x4  app.o [1]
    __DLIB_PERTHREAD  inited   0x200001e8     0x4  errno.o [3]
                             - 0x200001ec   0x1ec

"P7", part 2 of 3:                         0x2acc
  .bss                zero     0x200001ec   0xfa0  app.o [1]
  .bss                zero     0x2000118c   0x640  os_cfg_app.o [1]
  .bss                zero     0x200017cc   0x200  app.o [1]
  .bss                zero     0x200019cc   0x200  app.o [1]
  .bss                zero     0x20001bcc   0x200  os_cfg_app.o [1]
  .bss                zero     0x20001dcc   0x200  os_cfg_app.o [1]
  .bss                zero     0x20001fcc   0x200  os_cfg_app.o [1]
  .bss                zero     0x200021cc   0x200  os_cfg_app.o [1]
  .bss                zero     0x200023cc   0x118  bsp_int.o [1]
  .bss                zero     0x200024e4    0xf0  os_var.o [1]
  .bss                zero     0x200025d4    0x9c  app.o [1]
  .bss                zero     0x20002670    0x9c  app.o [1]
  .bss                zero     0x2000270c    0x9c  app.o [1]
  .bss                zero     0x200027a8    0x9c  os_var.o [1]
  .bss                zero     0x20002844    0x9c  os_var.o [1]
  .bss                zero     0x200028e0    0x9c  os_var.o [1]
  .bss                zero     0x2000297c    0x80  XShHandles.o [3]
  .bss                zero     0x200029fc    0x68  os_cfg_app.o [1]
  .bss                zero     0x20002a64    0x68  os_cfg_app.o [1]
  .bss                zero     0x20002acc    0x50  OSRecTask.o [1]
  .bss                zero     0x20002b1c    0x50  xfiles.o [3]
  .bss                zero     0x20002b6c    0x50  xfiles.o [3]
  .bss                zero     0x20002bbc    0x20  OSRecTask.o [1]
  .bss                zero     0x20002bdc    0x20  OSRecTask.o [1]
  .bss                zero     0x20002bfc    0x10  cpu_core.o [1]
  .bss                zero     0x20002c0c     0xc  OSRecTask.o [1]
  .bss                zero     0x20002c18     0x8  os_var.o [1]
  .bss                zero     0x20002c20     0x8  xxmemxmalloc.o [3]
  .bss                zero     0x20002c28     0x4  bsp.o [1]
  .bss                zero     0x20002c2c     0x4  bsp_display.o [1]
  .bss                zero     0x20002c30     0x4  cpu_core.o [1]
  .bss                zero     0x20002c34     0x4  cpu_core.o [1]
  .bss                zero     0x20002c38     0x4  cpu_core.o [1]
  .bss                zero     0x20002c3c     0x4  cpu_core.o [1]
  .bss                zero     0x20002c40     0x4  cpu_core.o [1]
  .bss                zero     0x20002c44     0x4  cpu_core.o [1]
  .bss                zero     0x20002c48     0x4  os_cpu_c.o [1]
  .bss                zero     0x20002c4c     0x4  os_prio.o [1]
  .bss                zero     0x20002c50     0x4  os_var.o [1]
  .bss                zero     0x20002c54     0x4  os_var.o [1]
  .bss                zero     0x20002c58     0x4  os_var.o [1]
  .bss                zero     0x20002c5c     0x4  os_var.o [1]
  .bss                zero     0x20002c60     0x4  os_var.o [1]
  .bss                zero     0x20002c64     0x4  os_var.o [1]
  .bss                zero     0x20002c68     0x4  os_var.o [1]
  .bss                zero     0x20002c6c     0x4  os_var.o [1]
  .bss                zero     0x20002c70     0x4  os_var.o [1]
  .bss                zero     0x20002c74     0x4  os_var.o [1]
  .bss                zero     0x20002c78     0x4  os_var.o [1]
  .bss                zero     0x20002c7c     0x4  os_var.o [1]
  .bss                zero     0x20002c80     0x4  os_var.o [1]
  .bss                zero     0x20002c84     0x4  os_var.o [1]
  .bss                zero     0x20002c88     0x4  os_var.o [1]
  .bss                zero     0x20002c8c     0x4  os_var.o [1]
  .bss                zero     0x20002c90     0x4  os_var.o [1]
  .bss                zero     0x20002c94     0x4  os_var.o [1]
  .bss                zero     0x20002c98     0x4  OSRecTask.o [1]
  .bss                zero     0x20002c9c     0x4  xgetmemchunk.o [3]
  .bss                zero     0x20002ca0     0x2  cpu_core.o [1]
  .bss                zero     0x20002ca2     0x2  cpu_core.o [1]
  .bss                zero     0x20002ca4     0x2  os_var.o [1]
  .bss                zero     0x20002ca6     0x2  os_var.o [1]
  .bss                zero     0x20002ca8     0x2  os_var.o [1]
  .bss                zero     0x20002caa     0x2  os_var.o [1]
  .bss                zero     0x20002cac     0x1  app.o [1]
  .bss                zero     0x20002cad     0x1  app.o [1]
  .bss                zero     0x20002cae     0x1  app.o [1]
  .bss                zero     0x20002caf     0x1  app.o [1]
  .bss                zero     0x20002cb0     0x1  app.o [1]
  .bss                zero     0x20002cb1     0x1  os_var.o [1]
  .bss                zero     0x20002cb2     0x1  os_var.o [1]
  .bss                zero     0x20002cb3     0x1  os_var.o [1]
  .bss                zero     0x20002cb4     0x1  os_var.o [1]
  .bss                zero     0x20002cb5     0x1  os_var.o [1]
                             - 0x20002cb6  0x2aca

"P7", part 3 of 3:                          0x400
  HEAP                         0x20002cb8     0x0  <Block>
  CSTACK                       0x20002cb8   0x400  <Block>
    CSTACK            uninit   0x20002cb8   0x400  <Block tail>
                             - 0x200030b8   0x400


*******************************************************************************
*** INIT TABLE
***

          Address     Size
          -------     ----
Zero (__iar_zero_init3)
    1 destination range, total size 0x2aca:
          0x200001ec  0x2aca

Copy/packbits (__iar_packbits_init3)
    1 source range, total size 0x8a (28% of destination):
          0x00006648    0x8a
    1 destination range, total size 0x1ec:
          0x20000000   0x1ec



*******************************************************************************
*** MODULE SUMMARY
***

    Module                 ro code  ro data  rw data
    ------                 -------  -------  -------
C:\Users\cheny_000\Desktop\a\ce4053\Micrium\Software\EvalBoards\TI\LM3S9B92-EVALBOT\IAR\uCOS-III-CE4053_PG\Flash\Obj: [1]
    OSRecTask.o                784       48      160
    app.o                    1 068       49    5 501
    app_vect.o                  12      284
    bsp.o                      168                 4
    bsp_display.o              612       96        4
    bsp_int.o                  598               280
    bsp_io.o                   192
    bsp_motor.o                504
    bsp_sensors.o              340
    cpu_a.o                     42
    cpu_bsp.o                   40
    cpu_c.o                    316
    cpu_core.o                 416                44
    gpio.o                     728       72
    i2c.o                      172
    lib_mem.o                  102
    os_cfg_app.o               224      100    3 856
    os_core.o                2 248       40
    os_cpu_a.o                 132
    os_cpu_c.o                 352                 4
    os_dbg.o                   488      340
    os_mem.o                   288
    os_msg.o                   204
    os_mutex.o                  28
    os_prio.o                  136                 4
    os_q.o                      28
    os_task.o                1 480        8
    os_tick.o                1 012       20
    os_time.o                  340
    os_tmr.o                   740       24
    os_var.o                                     801
    pwm.o                      152
    sysctl.o                 1 128      116
    ------------------------------------------------
    Total:                  15 074    1 197   10 658

command line: [2]
    ------------------------------------------------
    Total:

dl7M_tlf.a: [3]
    XShHandles.o               224               128
    XShttio.o                    8        2        8
    abort.o                      6
    div.o                       14
    errno.o                     12        2        4
    exit.o                       4
    fclose.o                   122
    fflush.o                   176
    fputc.o                     86
    fseek.o                     34
    localeconv.o               108       38      136
    low_level_init.o             4
    printf.o                    36
    putchar.o                   12
    setlocale.o                 20       32      116
    xcloseall.o                 88
    xencoding_sb.o              96
    xfgpos.o                    12
    xfiles.o                             63      384
    xfofind.o                  124
    xfspos.o                   214
    xfwprep.o                  182
    xgetmemchunk.o              44                 4
    xmbcurmax.o                 10
    xmbtowc.o                   32
    xprintffull.o            4 462
    xprout.o                    22
    xsyslock_nop.o               4
    xtls.o                       2
    xwctomb.o                   26
    xxmemxfree.o               128
    xxmemxmalloc.o             176                 8
    ------------------------------------------------
    Total:                   6 488      137      788

m7M_tl.a: [4]
    DblAdd.o                   212
    DblCmpGe.o                  46
    DblCmpLe.o                  46
    DblDiv.o                   582
    DblMul.o                   418
    DblSub.o                   384
    DblToI32.o                  88
    I32ToDbl.o                  48
    xdnorm.o                    66
    xdscale.o                  268
    ------------------------------------------------
    Total:                   2 158

rt7M_tl.a: [5]
    ABImemcpy_unaligned.o      118
    I64DivMod.o                238
    I64DivZer.o                  2
    cexit.o                     14
    cmain.o                     26
    cstart_closeall.o
    cstartup_M.o                12
    data_init.o                 40
    memchr.o                    88
    packbits_init.o            212
    strchr.o                    22
    strlen.o                    54
    zero_init3.o                34
    ------------------------------------------------
    Total:                     860

shb_l.a: [6]
    close.o                     26
    dwrite.o                    30
    exit.o                      20
    iarttio.o                  108
    iarwrite.o                  34
    iarwstd.o                   32
    lseek.o                     76
    remove.o                    22
    write.o                     16
    ------------------------------------------------
    Total:                     364

    Linker created                       44    1 024
----------------------------------------------------
    Grand Total:            24 944    1 378   12 470


*******************************************************************************
*** ENTRY LIST
***

Entry                      Address   Size  Type      Object
-----                      -------   ----  ----      ------
?main                   0x00006469         Code  Gb  cmain.o [5]
AppRobotMotorDriveSensorEnable
                        0x00005593   0x20  Code  Lc  app.o [1]
AppTaskOne              0x000054e9   0x5e  Code  Lc  app.o [1]
AppTaskOneStk           0x200017cc  0x200  Data  Lc  app.o [1]
AppTaskOneTCB           0x20002670   0x9c  Data  Lc  app.o [1]
AppTaskStart            0x000053c1  0x128  Code  Lc  app.o [1]
AppTaskStartStk         0x200001ec  0xfa0  Data  Lc  app.o [1]
AppTaskStartTCB         0x200025d4   0x9c  Data  Lc  app.o [1]
AppTaskTwo              0x00005549   0x4a  Code  Lc  app.o [1]
AppTaskTwoStk           0x200019cc  0x200  Data  Lc  app.o [1]
AppTaskTwoTCB           0x2000270c   0x9c  Data  Lc  app.o [1]
App_BusFault_ISR        0x00006581    0x2  Code  Lc  app_vect.o [1]
App_Fault_ISR           0x0000657f    0x2  Code  Lc  app_vect.o [1]
App_MemFault_ISR        0x00006585    0x2  Code  Lc  app_vect.o [1]
App_NMI_ISR             0x0000657d    0x2  Code  Lc  app_vect.o [1]
App_Spurious_ISR        0x00006587    0x2  Code  Lc  app_vect.o [1]
App_UsageFault_ISR      0x00006583    0x2  Code  Lc  app_vect.o [1]
BSP_BumpSensorsInit     0x00004ac9   0x18  Code  Gb  bsp_sensors.o [1]
BSP_CPUClkFreq          0x000040a1   0x12  Code  Gb  bsp.o [1]
BSP_CPU_ClkFreq_MHz     0x20002c28    0x4  Data  Gb  bsp.o [1]
BSP_DisplayClear        0x0000487d   0x4c  Code  Gb  bsp_display.o [1]
BSP_DisplayInit         0x00004905   0xd8  Code  Gb  bsp_display.o [1]
BSP_DisplayOn           0x000048c9   0x3c  Code  Gb  bsp_display.o [1]
BSP_DisplayWriteArray   0x000047ff   0x3e  Code  Lc  bsp_display.o [1]
BSP_DisplayWriteByte    0x000047cd   0x32  Code  Lc  bsp_display.o [1]
BSP_DisplayWriteFinal   0x0000483d   0x40  Code  Lc  bsp_display.o [1]
BSP_DisplayWriteFirst   0x000047a5   0x28  Code  Lc  bsp_display.o [1]
BSP_Init                0x0000403d   0x64  Code  Gb  bsp.o [1]
BSP_IntDisAll           0x0000454d    0x8  Code  Gb  bsp_int.o [1]
BSP_IntEn               0x00004555   0x10  Code  Gb  bsp_int.o [1]
BSP_IntHandler          0x0000477b   0x20  Code  Lc  bsp_int.o [1]
BSP_IntHandlerADC0      0x000045ff    0xa  Code  Gb  bsp_int.o [1]
BSP_IntHandlerADC1      0x00004609    0xa  Code  Gb  bsp_int.o [1]
BSP_IntHandlerADC1_0    0x00004735    0xa  Code  Gb  bsp_int.o [1]
BSP_IntHandlerADC1_1    0x0000473f    0xa  Code  Gb  bsp_int.o [1]
BSP_IntHandlerADC1_2    0x00004749    0xa  Code  Gb  bsp_int.o [1]
BSP_IntHandlerADC1_3    0x00004753    0xa  Code  Gb  bsp_int.o [1]
BSP_IntHandlerADC2      0x00004613    0xa  Code  Gb  bsp_int.o [1]
BSP_IntHandlerADC3      0x0000461d    0xa  Code  Gb  bsp_int.o [1]
BSP_IntHandlerCAN0      0x000046ef    0xa  Code  Gb  bsp_int.o [1]
BSP_IntHandlerCAN1      0x000046f9    0xa  Code  Gb  bsp_int.o [1]
BSP_IntHandlerCOMP0     0x0000466d    0xa  Code  Gb  bsp_int.o [1]
BSP_IntHandlerCOMP1     0x00004677    0xa  Code  Gb  bsp_int.o [1]
BSP_IntHandlerCOMP2     0x00004681    0xa  Code  Gb  bsp_int.o [1]
BSP_IntHandlerDummy     0x000047a1    0x2  Code  Lc  bsp_int.o [1]
BSP_IntHandlerEPI       0x00004767    0xa  Code  Gb  bsp_int.o [1]
BSP_IntHandlerETH       0x00004703    0xa  Code  Gb  bsp_int.o [1]
BSP_IntHandlerFLASH     0x00004695    0xa  Code  Gb  bsp_int.o [1]
BSP_IntHandlerGPIOA     0x000045a5    0xa  Code  Gb  bsp_int.o [1]
BSP_IntHandlerGPIOB     0x000045af    0xa  Code  Gb  bsp_int.o [1]
BSP_IntHandlerGPIOC     0x000045b9    0xa  Code  Gb  bsp_int.o [1]
BSP_IntHandlerGPIOD     0x000045c3    0xa  Code  Gb  bsp_int.o [1]
BSP_IntHandlerGPIOE     0x000045cd    0xa  Code  Gb  bsp_int.o [1]
BSP_IntHandlerGPIOF     0x0000469f    0xa  Code  Gb  bsp_int.o [1]
BSP_IntHandlerGPIOG     0x000046a9    0xa  Code  Gb  bsp_int.o [1]
BSP_IntHandlerGPIOH     0x000046b3    0xa  Code  Gb  bsp_int.o [1]
BSP_IntHandlerGPIOJ     0x00004771    0xa  Code  Gb  bsp_int.o [1]
BSP_IntHandlerHIBERNATE
                        0x0000470d    0xa  Code  Gb  bsp_int.o [1]
BSP_IntHandlerI2C0      0x000045f5    0xa  Code  Gb  bsp_int.o [1]
BSP_IntHandlerI2C1      0x000046e5    0xa  Code  Gb  bsp_int.o [1]
BSP_IntHandlerI2S0      0x0000475d    0xa  Code  Gb  bsp_int.o [1]
BSP_IntHandlerSSI0      0x000045eb    0xa  Code  Gb  bsp_int.o [1]
BSP_IntHandlerSSI1      0x000046c7    0xa  Code  Gb  bsp_int.o [1]
BSP_IntHandlerSYSCTL    0x0000468b    0xa  Code  Gb  bsp_int.o [1]
BSP_IntHandlerTIMER0A   0x00004631    0xa  Code  Gb  bsp_int.o [1]
BSP_IntHandlerTIMER0B   0x0000463b    0xa  Code  Gb  bsp_int.o [1]
BSP_IntHandlerTIMER1A   0x00004645    0xa  Code  Gb  bsp_int.o [1]
BSP_IntHandlerTIMER1B   0x0000464f    0xa  Code  Gb  bsp_int.o [1]
BSP_IntHandlerTIMER2A   0x00004659    0xa  Code  Gb  bsp_int.o [1]
BSP_IntHandlerTIMER2B   0x00004663    0xa  Code  Gb  bsp_int.o [1]
BSP_IntHandlerTIMER3A   0x000046d1    0xa  Code  Gb  bsp_int.o [1]
BSP_IntHandlerTIMER3B   0x000046db    0xa  Code  Gb  bsp_int.o [1]
BSP_IntHandlerUART0     0x000045d7    0xa  Code  Gb  bsp_int.o [1]
BSP_IntHandlerUART1     0x000045e1    0xa  Code  Gb  bsp_int.o [1]
BSP_IntHandlerUART2     0x000046bd    0xa  Code  Gb  bsp_int.o [1]
BSP_IntHandlerUDMA_ERR  0x0000472b    0xa  Code  Gb  bsp_int.o [1]
BSP_IntHandlerUDMA_SW   0x00004721    0xa  Code  Gb  bsp_int.o [1]
BSP_IntHandlerUSB       0x00004717    0xa  Code  Gb  bsp_int.o [1]
BSP_IntHandlerWATCHDOG  0x00004627    0xa  Code  Gb  bsp_int.o [1]
BSP_IntInit             0x0000458d   0x18  Code  Gb  bsp_int.o [1]
BSP_IntVectSet          0x00004565   0x28  Code  Gb  bsp_int.o [1]
BSP_IntVectTbl          0x200023cc  0x118  Data  Lc  bsp_int.o [1]
BSP_LED_Off             0x00004a33   0x36  Code  Gb  bsp_io.o [1]
BSP_LED_Toggle          0x00004a69   0x54  Code  Gb  bsp_io.o [1]
BSP_LEDsInit            0x00004a21   0x12  Code  Gb  bsp_io.o [1]
BSP_MotorDir            0x00004cf9   0x44  Code  Gb  bsp_motor.o [1]
BSP_MotorRun            0x00004d3d   0x1c  Code  Gb  bsp_motor.o [1]
BSP_MotorSpeed          0x00004d89   0x76  Code  Gb  bsp_motor.o [1]
BSP_MotorStop           0x00004d59   0x30  Code  Gb  bsp_motor.o [1]
BSP_MotorsInit          0x00004c1d   0xdc  Code  Gb  bsp_motor.o [1]
BSP_PushButtonsInit     0x00004a09   0x18  Code  Gb  bsp_io.o [1]
BSP_WheelSensorEnable   0x00004b83    0xe  Code  Gb  bsp_sensors.o [1]
BSP_WheelSensorIntEnable
                        0x00004b91   0x7e  Code  Gb  bsp_sensors.o [1]
BSP_WheelSensorsInit    0x00004ae1   0xa2  Code  Gb  bsp_sensors.o [1]
BinaryHeap_Heapify      0x00005821   0x24  Code  Gb  OSRecTask.o [1]
BinaryHeap_Insert       0x00005809   0x18  Code  Gb  OSRecTask.o [1]
BinaryHeap_init         0x00005799   0x70  Code  Gb  OSRecTask.o [1]
BinaryHeap_printTree    0x00005845   0x2a  Code  Gb  OSRecTask.o [1]
CPU_CntLeadZeros        0x00003c1f         Code  Gb  cpu_a.o [1]
CPU_Init                0x00003c35   0x10  Code  Gb  cpu_core.o [1]
CPU_IntDis              0x00003c09         Code  Gb  cpu_a.o [1]
CPU_IntDisMeasCtr       0x20002ca0    0x2  Data  Gb  cpu_core.o [1]
CPU_IntDisMeasInit      0x00003d27   0x74  Code  Lc  cpu_core.o [1]
CPU_IntDisMeasMaxCalc   0x00003d9b   0x14  Code  Lc  cpu_core.o [1]
CPU_IntDisMeasMaxCurGet
                        0x00003c8d   0x1c  Code  Gb  cpu_core.o [1]
CPU_IntDisMeasMaxCurReset
                        0x00003c6d   0x20  Code  Gb  cpu_core.o [1]
CPU_IntDisMeasMaxCur_cnts
                        0x20002c40    0x4  Data  Gb  cpu_core.o [1]
CPU_IntDisMeasMax_cnts  0x20002c44    0x4  Data  Gb  cpu_core.o [1]
CPU_IntDisMeasOvrhd_cnts
                        0x20002c3c    0x4  Data  Gb  cpu_core.o [1]
CPU_IntDisMeasStart     0x00003ca9   0x28  Code  Gb  cpu_core.o [1]
CPU_IntDisMeasStart_cnts
                        0x20002c34    0x4  Data  Gb  cpu_core.o [1]
CPU_IntDisMeasStop      0x00003cd1   0x40  Code  Gb  cpu_core.o [1]
CPU_IntDisMeasStop_cnts
                        0x20002c38    0x4  Data  Gb  cpu_core.o [1]
CPU_IntDisNestCtr       0x20002ca2    0x2  Data  Gb  cpu_core.o [1]
CPU_IntEn               0x00003c0d         Code  Gb  cpu_a.o [1]
CPU_IntSrcEn            0x00004e15  0x12c  Code  Gb  cpu_c.o [1]
CPU_Name                0x20002bfc   0x10  Data  Gb  cpu_core.o [1]
CPU_NameClr             0x00003c45   0x22  Code  Gb  cpu_core.o [1]
CPU_NameInit            0x00003d11    0x8  Code  Lc  cpu_core.o [1]
CPU_RevBits             0x00003c25         Code  Gb  cpu_a.o [1]
CPU_SR_Restore          0x00003c19         Code  Gb  cpu_a.o [1]
CPU_SR_Save             0x00003c11         Code  Gb  cpu_a.o [1]
CPU_TS_Init             0x00003d19    0xe  Code  Lc  cpu_core.o [1]
CPU_TS_TmrFreqSet       0x00003c67    0x6  Code  Gb  cpu_core.o [1]
CPU_TS_TmrFreq_Hz       0x20002c30    0x4  Data  Gb  cpu_core.o [1]
CPU_TS_TmrInit          0x00003e59   0x18  Code  Gb  cpu_bsp.o [1]
CPU_TS_TmrRd            0x00003e71    0x6  Code  Gb  cpu_bsp.o [1]
CPU_WaitForExcept       0x00003c2f         Code  Gb  cpu_a.o [1]
CPU_WaitForInt          0x00003c2b         Code  Gb  cpu_a.o [1]
CSTACK$$Base            0x20002cb8          --   Gb  - Linker created -
CSTACK$$Limit           0x200030b8          --   Gb  - Linker created -
GPIODirModeSet          0x00004ffd   0x46  Code  Gb  gpio.o [1]
GPIOIntTypeSet          0x00005043   0x5a  Code  Gb  gpio.o [1]
GPIOPadConfigSet        0x0000509d  0x10e  Code  Gb  gpio.o [1]
GPIOPinConfigure        0x00005285   0x46  Code  Gb  gpio.o [1]
GPIOPinIntClear         0x000051e3    0x8  Code  Gb  gpio.o [1]
GPIOPinIntDisable       0x000051bd   0x12  Code  Gb  gpio.o [1]
GPIOPinIntEnable        0x000051ab   0x12  Code  Gb  gpio.o [1]
GPIOPinIntStatus        0x000051cf   0x14  Code  Gb  gpio.o [1]
GPIOPinRead             0x000051eb    0x8  Code  Gb  gpio.o [1]
GPIOPinTypeGPIOInput    0x000051fd   0x22  Code  Gb  gpio.o [1]
GPIOPinTypeGPIOOutput   0x0000521f   0x22  Code  Gb  gpio.o [1]
GPIOPinTypeI2C          0x00005241   0x22  Code  Gb  gpio.o [1]
GPIOPinTypePWM          0x00005263   0x22  Code  Gb  gpio.o [1]
GPIOPinWrite            0x000051f3    0xa  Code  Gb  gpio.o [1]
HEAP$$Base              0x20002cb8          --   Gb  - Linker created -
HEAP$$Limit             0x20002cb8          --   Gb  - Linker created -
I2CMasterControl        0x00004fd5    0x4  Code  Gb  i2c.o [1]
I2CMasterDataPut        0x00004ff7    0x6  Code  Gb  i2c.o [1]
I2CMasterEnable         0x00004f8f    0xa  Code  Gb  i2c.o [1]
I2CMasterErr            0x00004fd9   0x1e  Code  Gb  i2c.o [1]
I2CMasterInitExpClk     0x00004f51   0x3e  Code  Gb  i2c.o [1]
I2CMasterIntStatus      0x00004f99   0x26  Code  Gb  i2c.o [1]
I2CMasterSlaveAddrSet   0x00004fc9    0xc  Code  Gb  i2c.o [1]
InStream_Read           0x00005e81   0x22  Code  Lc  packbits_init.o [5]
IntWheelSensor          0x000055b5   0xd2  Code  Gb  app.o [1]
Left_tgt                0x20002cac    0x1  Data  Gb  app.o [1]
Mem_Clr                 0x00003fd5    0xc  Code  Gb  lib_mem.o [1]
Mem_Set                 0x00003fe1   0x5a  Code  Gb  lib_mem.o [1]
OSCfg_DataSizeRAM       0x00006614    0x4  Data  Gb  os_cfg_app.o [1]
OSCfg_ISRStk            0x20001dcc  0x200  Data  Gb  os_cfg_app.o [1]
OSCfg_ISRStkBasePtr     0x000065cc    0x4  Data  Gb  os_cfg_app.o [1]
OSCfg_ISRStkSize        0x000065d0    0x4  Data  Gb  os_cfg_app.o [1]
OSCfg_ISRStkSizeRAM     0x000065d4    0x4  Data  Gb  os_cfg_app.o [1]
OSCfg_IdleTaskStk       0x20001bcc  0x200  Data  Gb  os_cfg_app.o [1]
OSCfg_IdleTaskStkBasePtr
                        0x000065bc    0x4  Data  Gb  os_cfg_app.o [1]
OSCfg_IdleTaskStkLimit  0x000065c0    0x4  Data  Gb  os_cfg_app.o [1]
OSCfg_IdleTaskStkSize   0x000065c4    0x4  Data  Gb  os_cfg_app.o [1]
OSCfg_IdleTaskStkSizeRAM
                        0x000065c8    0x4  Data  Gb  os_cfg_app.o [1]
OSCfg_Init              0x00003b29   0xe0  Code  Gb  os_cfg_app.o [1]
OSCfg_MsgPool           0x2000118c  0x640  Data  Gb  os_cfg_app.o [1]
OSCfg_MsgPoolBasePtr    0x000065dc    0x4  Data  Gb  os_cfg_app.o [1]
OSCfg_MsgPoolSize       0x000012e2    0x2  Data  Gb  os_cfg_app.o [1]
OSCfg_MsgPoolSizeRAM    0x000065d8    0x4  Data  Gb  os_cfg_app.o [1]
OSCfg_StkSizeMin        0x000065e0    0x4  Data  Gb  os_cfg_app.o [1]
OSCfg_TickRate_Hz       0x000065e4    0x4  Data  Gb  os_cfg_app.o [1]
OSCfg_TickTaskPrio      0x00006626    0x1  Data  Gb  os_cfg_app.o [1]
OSCfg_TickTaskStk       0x20001fcc  0x200  Data  Gb  os_cfg_app.o [1]
OSCfg_TickTaskStkBasePtr
                        0x000065e8    0x4  Data  Gb  os_cfg_app.o [1]
OSCfg_TickTaskStkLimit  0x000065ec    0x4  Data  Gb  os_cfg_app.o [1]
OSCfg_TickTaskStkSize   0x000065f0    0x4  Data  Gb  os_cfg_app.o [1]
OSCfg_TickTaskStkSizeRAM
                        0x000065f4    0x4  Data  Gb  os_cfg_app.o [1]
OSCfg_TickWheel         0x200029fc   0x68  Data  Gb  os_cfg_app.o [1]
OSCfg_TickWheelSize     0x0000131a    0x2  Data  Gb  os_cfg_app.o [1]
OSCfg_TickWheelSizeRAM  0x000065f8    0x4  Data  Gb  os_cfg_app.o [1]
OSCfg_TmrTaskPrio       0x00006627    0x1  Data  Gb  os_cfg_app.o [1]
OSCfg_TmrTaskRate_Hz    0x000065fc    0x4  Data  Gb  os_cfg_app.o [1]
OSCfg_TmrTaskStk        0x200021cc  0x200  Data  Gb  os_cfg_app.o [1]
OSCfg_TmrTaskStkBasePtr
                        0x00006600    0x4  Data  Gb  os_cfg_app.o [1]
OSCfg_TmrTaskStkLimit   0x00006604    0x4  Data  Gb  os_cfg_app.o [1]
OSCfg_TmrTaskStkSize    0x00006608    0x4  Data  Gb  os_cfg_app.o [1]
OSCfg_TmrTaskStkSizeRAM
                        0x0000660c    0x4  Data  Gb  os_cfg_app.o [1]
OSCfg_TmrWheel          0x20002a64   0x68  Data  Gb  os_cfg_app.o [1]
OSCfg_TmrWheelSize      0x0000137e    0x2  Data  Gb  os_cfg_app.o [1]
OSCfg_TmrWheelSizeRAM   0x00006610    0x4  Data  Gb  os_cfg_app.o [1]
OSDbg_AppHooksEn        0x00006629    0x1  Data  Gb  os_dbg.o [1]
OSDbg_ArgChkEn          0x00006628    0x1  Data  Gb  os_dbg.o [1]
OSDbg_CalledFromISRChkEn
                        0x0000662a    0x1  Data  Gb  os_dbg.o [1]
OSDbg_DataSize          0x00006620    0x4  Data  Gb  os_dbg.o [1]
OSDbg_DbgEn             0x0000144a    0x2  Data  Gb  os_dbg.o [1]
OSDbg_EndiannessTest    0x00006618    0x4  Data  Gb  os_dbg.o [1]
OSDbg_FlagEn            0x0000662b    0x1  Data  Gb  os_dbg.o [1]
OSDbg_FlagGrp           0x000063a4   0x28  Data  Gb  os_dbg.o [1]
OSDbg_ISRPostDeferredEn
                        0x0000662c    0x1  Data  Gb  os_dbg.o [1]
OSDbg_Mem               0x00006448   0x20  Data  Gb  os_dbg.o [1]
OSDbg_MemEn             0x0000662d    0x1  Data  Gb  os_dbg.o [1]
OSDbg_MemSize           0x000014c2    0x2  Data  Gb  os_dbg.o [1]
OSDbg_MsgEn             0x0000662e    0x1  Data  Gb  os_dbg.o [1]
OSDbg_MsgPoolSize       0x00001846    0x2  Data  Gb  os_dbg.o [1]
OSDbg_MsgQSize          0x00001876    0x2  Data  Gb  os_dbg.o [1]
OSDbg_MsgSize           0x00001632    0x2  Data  Gb  os_dbg.o [1]
OSDbg_Mutex             0x00006378   0x2c  Data  Gb  os_dbg.o [1]
OSDbg_MutexDelEn        0x00006630    0x1  Data  Gb  os_dbg.o [1]
OSDbg_MutexEn           0x0000662f    0x1  Data  Gb  os_dbg.o [1]
OSDbg_MutexPendAbortEn  0x00006631    0x1  Data  Gb  os_dbg.o [1]
OSDbg_MutexSize         0x00001dd2    0x2  Data  Gb  os_dbg.o [1]
OSDbg_ObjTypeChkEn      0x00006632    0x1  Data  Gb  os_dbg.o [1]
OSDbg_PendDataSize      0x00001e4e    0x2  Data  Gb  os_dbg.o [1]
OSDbg_PendListSize      0x00001ef2    0x2  Data  Gb  os_dbg.o [1]
OSDbg_PendMultiEn       0x00006633    0x1  Data  Gb  os_dbg.o [1]
OSDbg_PendObjSize       0x00001fca    0x2  Data  Gb  os_dbg.o [1]
OSDbg_PrioMax           0x00003c32    0x2  Data  Gb  os_dbg.o [1]
OSDbg_PrioTblSize       0x0000403a    0x2  Data  Gb  os_dbg.o [1]
OSDbg_PtrSize           0x000047a2    0x2  Data  Gb  os_dbg.o [1]
OSDbg_Q                 0x00006348   0x30  Data  Gb  os_dbg.o [1]
OSDbg_QDelEn            0x00006635    0x1  Data  Gb  os_dbg.o [1]
OSDbg_QEn               0x00006634    0x1  Data  Gb  os_dbg.o [1]
OSDbg_QFlushEn          0x00006636    0x1  Data  Gb  os_dbg.o [1]
OSDbg_QPendAbortEn      0x00006637    0x1  Data  Gb  os_dbg.o [1]
OSDbg_QSize             0x00005c82    0x2  Data  Gb  os_dbg.o [1]
OSDbg_RdyList           0x00005f5a    0x2  Data  Gb  os_dbg.o [1]
OSDbg_RdyListSize       0x0000661c    0x4  Data  Gb  os_dbg.o [1]
OSDbg_SchedRoundRobinEn
                        0x00006638    0x1  Data  Gb  os_dbg.o [1]
OSDbg_Sem               0x000063cc   0x28  Data  Gb  os_dbg.o [1]
OSDbg_SemEn             0x00006639    0x1  Data  Gb  os_dbg.o [1]
OSDbg_StatTaskEn        0x0000663b    0x1  Data  Gb  os_dbg.o [1]
OSDbg_StatTaskStkChkEn  0x0000663c    0x1  Data  Gb  os_dbg.o [1]
OSDbg_StkWidth          0x0000663a    0x1  Data  Gb  os_dbg.o [1]
OSDbg_TCBSize           0x0000627a    0x2  Data  Gb  os_dbg.o [1]
OSDbg_TaskChangePrioEn  0x0000663d    0x1  Data  Gb  os_dbg.o [1]
OSDbg_TaskDelEn         0x0000663e    0x1  Data  Gb  os_dbg.o [1]
OSDbg_TaskProfileEn     0x00006641    0x1  Data  Gb  os_dbg.o [1]
OSDbg_TaskQEn           0x0000663f    0x1  Data  Gb  os_dbg.o [1]
OSDbg_TaskQPendAbortEn  0x00006640    0x1  Data  Gb  os_dbg.o [1]
OSDbg_TaskRegTblSize    0x0000616e    0x2  Data  Gb  os_dbg.o [1]
OSDbg_TaskSemPendAbortEn
                        0x00006642    0x1  Data  Gb  os_dbg.o [1]
OSDbg_TaskSuspendEn     0x00006643    0x1  Data  Gb  os_dbg.o [1]
OSDbg_TickSpokeSize     0x0000648a    0x2  Data  Gb  os_dbg.o [1]
OSDbg_TimeDlyHMSMEn     0x00006644    0x1  Data  Gb  os_dbg.o [1]
OSDbg_TimeDlyResumeEn   0x00006645    0x1  Data  Gb  os_dbg.o [1]
OSDbg_Tmr               0x00006314   0x34  Data  Gb  os_dbg.o [1]
OSDbg_TmrDelEn          0x00006647    0x1  Data  Gb  os_dbg.o [1]
OSDbg_TmrEn             0x00006646    0x1  Data  Gb  os_dbg.o [1]
OSDbg_TmrSize           0x0000649a    0x2  Data  Gb  os_dbg.o [1]
OSDbg_TmrSpokeSize      0x000064ca    0x2  Data  Gb  os_dbg.o [1]
OSDbg_VersionNbr        0x00006624    0x2  Data  Gb  os_dbg.o [1]
OSIdleTaskCtr           0x20002c50    0x4  Data  Gb  os_var.o [1]
OSIdleTaskHook          0x00002895    0x2  Code  Gb  os_cpu_c.o [1]
OSIdleTaskTCB           0x200027a8   0x9c  Data  Gb  os_var.o [1]
OSInit                  0x00001fcd   0xd2  Code  Gb  os_core.o [1]
OSInitHook              0x00002897   0x14  Code  Gb  os_cpu_c.o [1]
OSIntEnter              0x0000209f   0x24  Code  Gb  os_core.o [1]
OSIntExit               0x000020c3   0xb2  Code  Gb  os_core.o [1]
OSIntNestingCtr         0x20002cb1    0x1  Data  Gb  os_var.o [1]
OSMemCreate             0x00003439   0x8c  Code  Gb  os_mem.o [1]
OSMemDbgListPtr         0x20002c54    0x4  Data  Gb  os_var.o [1]
OSMemGet                0x000034c5   0x4a  Code  Gb  os_mem.o [1]
OSMemQty                0x20002ca4    0x2  Data  Gb  os_var.o [1]
OSMsgPool               0x20002c18    0x8  Data  Gb  os_var.o [1]
OSMutexDbgListPtr       0x20002c58    0x4  Data  Gb  os_var.o [1]
OSMutexQty              0x20002ca6    0x2  Data  Gb  os_var.o [1]
OSPrioCur               0x20002cb3    0x1  Data  Gb  os_var.o [1]
OSPrioHighRdy           0x20002cb4    0x1  Data  Gb  os_var.o [1]
OSPrioTbl               0x20002c4c    0x4  Data  Gb  os_prio.o [1]
OSQDbgListPtr           0x20002c5c    0x4  Data  Gb  os_var.o [1]
OSQQty                  0x20002ca8    0x2  Data  Gb  os_var.o [1]
OSRdyList               0x200024e4   0xf0  Data  Gb  os_var.o [1]
OSRec_TaskCreate        0x0000596d  0x108  Code  Gb  OSRecTask.o [1]
OSRunning               0x20002cb2    0x1  Data  Gb  os_var.o [1]
OSSched                 0x00002175   0x78  Code  Gb  os_core.o [1]
OSSchedLock             0x000021ed   0x68  Code  Gb  os_core.o [1]
OSSchedLockNestingCtr   0x20002cb5    0x1  Data  Gb  os_var.o [1]
OSSchedLockTimeBegin    0x20002c60    0x4  Data  Gb  os_var.o [1]
OSSchedLockTimeMax      0x20002c64    0x4  Data  Gb  os_var.o [1]
OSSchedLockTimeMaxCur   0x20002c68    0x4  Data  Gb  os_var.o [1]
OSSchedUnlock           0x00002255   0x88  Code  Gb  os_core.o [1]
OSStart                 0x000022dd   0x64  Code  Gb  os_core.o [1]
OSStartHighRdy          0x00003dd5         Code  Gb  os_cpu_a.o [1]
OSTCBCurPtr             0x20002c90    0x4  Data  Gb  os_var.o [1]
OSTCBHighRdyPtr         0x20002c94    0x4  Data  Gb  os_var.o [1]
OSTaskCreate            0x00002a7d  0x10c  Code  Gb  os_task.o [1]
OSTaskCreateHook        0x000028ab    0x2  Code  Gb  os_cpu_c.o [1]
OSTaskCtxSwCtr          0x20002c6c    0x4  Data  Gb  os_var.o [1]
OSTaskDbgListPtr        0x20002c70    0x4  Data  Gb  os_var.o [1]
OSTaskDel               0x00002b89  0x104  Code  Gb  os_task.o [1]
OSTaskDelHook           0x000028ad    0x2  Code  Gb  os_cpu_c.o [1]
OSTaskQty               0x20002caa    0x2  Data  Gb  os_var.o [1]
OSTaskReturnHook        0x000028af    0x2  Code  Gb  os_cpu_c.o [1]
OSTaskSemPend           0x00002c8d  0x146  Code  Gb  os_task.o [1]
OSTaskSemPost           0x00002dd3   0x1c  Code  Gb  os_task.o [1]
OSTaskStkInit           0x000028b1   0x80  Code  Gb  os_cpu_c.o [1]
OSTaskSwHook            0x00002931   0x3e  Code  Gb  os_cpu_c.o [1]
OSTickCtr               0x20002c74    0x4  Data  Gb  os_var.o [1]
OSTickTaskTCB           0x20002844   0x9c  Data  Gb  os_var.o [1]
OSTickTaskTimeMax       0x20002c78    0x4  Data  Gb  os_var.o [1]
OSTimeDlyHMSM           0x00003e81   0xfc  Code  Gb  os_time.o [1]
OSTimeTick              0x00003f7d   0x36  Code  Gb  os_time.o [1]
OSTimeTickHook          0x0000296f    0x2  Code  Gb  os_cpu_c.o [1]
OSTmrDbgListPtr         0x20002c7c    0x4  Data  Gb  os_var.o [1]
OSTmrTaskTCB            0x200028e0   0x9c  Data  Gb  os_var.o [1]
OSTmrTaskTimeMax        0x20002c80    0x4  Data  Gb  os_var.o [1]
OSTmrTickCtr            0x20002c84    0x4  Data  Gb  os_var.o [1]
OSTmrUpdateCnt          0x20002c88    0x4  Data  Gb  os_var.o [1]
OSTmrUpdateCtr          0x20002c8c    0x4  Data  Gb  os_var.o [1]
OS_CPU_ExceptStkBase    0x20002c48    0x4  Data  Gb  os_cpu_c.o [1]
OS_CPU_PendSVHandler    0x00003df3         Code  Gb  os_cpu_a.o [1]
OS_CPU_SysTickHandler   0x00002971   0x2c  Code  Gb  os_cpu_c.o [1]
OS_CPU_SysTickInit      0x0000299d   0x2c  Code  Gb  os_cpu_c.o [1]
OS_Dbg_Init             0x00003941  0x1e8  Code  Gb  os_dbg.o [1]
OS_IdleTask             0x00002341   0x2c  Code  Gb  os_core.o [1]
OS_IdleTaskInit         0x0000236d   0x50  Code  Gb  os_core.o [1]
OS_MemDbgListAdd        0x0000350f   0x24  Code  Gb  os_mem.o [1]
OS_MemInit              0x00003533   0x12  Code  Gb  os_mem.o [1]
OS_MsgPoolCreate        0x00003559   0x3c  Code  Gb  os_msg.o [1]
OS_MsgPoolInit          0x00003595   0x2c  Code  Gb  os_msg.o [1]
OS_MsgQFreeAll          0x000035c1   0x44  Code  Gb  os_msg.o [1]
OS_MsgQInit             0x00003605   0x14  Code  Gb  os_msg.o [1]
OS_MutexInit            0x00003625   0x12  Code  Gb  os_mutex.o [1]
OS_Pend                 0x000023bd   0x6c  Code  Gb  os_core.o [1]
OS_PendDataInit         0x00002429   0x34  Code  Gb  os_core.o [1]
OS_PendDbgNameAdd       0x0000245d   0x42  Code  Gb  os_core.o [1]
OS_PendDbgNameRemove    0x0000249f   0x1e  Code  Gb  os_core.o [1]
OS_PendListInsertPrio   0x000024bd   0x6e  Code  Gb  os_core.o [1]
OS_PendListRemove       0x0000252b   0x28  Code  Gb  os_core.o [1]
OS_PendListRemove1      0x00002553   0x48  Code  Gb  os_core.o [1]
OS_Post                 0x0000259b   0xc0  Code  Gb  os_core.o [1]
OS_Post1                0x0000265b   0x26  Code  Gb  os_core.o [1]
OS_PrioGetHighest       0x00002a09   0x20  Code  Gb  os_prio.o [1]
OS_PrioInit             0x000029f5   0x14  Code  Gb  os_prio.o [1]
OS_PrioInsert           0x00002a29   0x26  Code  Gb  os_prio.o [1]
OS_PrioRemove           0x00002a4f   0x28  Code  Gb  os_prio.o [1]
OS_QInit                0x00003641   0x12  Code  Gb  os_q.o [1]
OS_RdyListInit          0x00002681   0x24  Code  Gb  os_core.o [1]
OS_RdyListInsert        0x000026a9   0x28  Code  Gb  os_core.o [1]
OS_RdyListInsertHead    0x000026d1   0x3a  Code  Gb  os_core.o [1]
OS_RdyListInsertTail    0x0000270b   0x38  Code  Gb  os_core.o [1]
OS_RdyListRemove        0x00002743   0x5c  Code  Gb  os_core.o [1]
OS_SchedLockTimeMeasStart
                        0x0000279f   0x14  Code  Gb  os_core.o [1]
OS_SchedLockTimeMeasStop
                        0x000027b3   0x2e  Code  Gb  os_core.o [1]
OS_TaskBlock            0x00002841   0x3a  Code  Gb  os_core.o [1]
OS_TaskDbgListAdd       0x00002def   0x2c  Code  Gb  os_task.o [1]
OS_TaskDbgListRemove    0x00002e1b   0x4a  Code  Gb  os_task.o [1]
OS_TaskInit             0x00002e65   0x18  Code  Gb  os_task.o [1]
OS_TaskInitTCB          0x00002e7d   0xb8  Code  Gb  os_task.o [1]
OS_TaskRdy              0x0000287b   0x1a  Code  Gb  os_core.o [1]
OS_TaskReturn           0x00002f35   0x14  Code  Gb  os_task.o [1]
OS_TaskSemPost          0x00002f49   0xd4  Code  Gb  os_task.o [1]
OS_TickListInit         0x000030e1   0x2a  Code  Gb  os_tick.o [1]
OS_TickListInsert       0x0000310b  0x11c  Code  Gb  os_tick.o [1]
OS_TickListRemove       0x00003227   0x42  Code  Gb  os_tick.o [1]
OS_TickListUpdate       0x00003269  0x198  Code  Gb  os_tick.o [1]
OS_TickTask             0x00003045   0x28  Code  Gb  os_tick.o [1]
OS_TickTaskInit         0x0000306d   0x74  Code  Gb  os_tick.o [1]
OS_TmrInit              0x0000365d   0xda  Code  Gb  os_tmr.o [1]
OS_TmrLink              0x00003737   0xd0  Code  Gb  os_tmr.o [1]
OS_TmrTask              0x00003855   0xaa  Code  Gb  os_tmr.o [1]
OS_TmrUnlink            0x00003807   0x4c  Code  Gb  os_tmr.o [1]
PWMGenConfigure         0x000052d5   0x28  Code  Gb  pwm.o [1]
PWMGenEnable            0x00005311    0xa  Code  Gb  pwm.o [1]
PWMGenPeriodSet         0x000052fd   0x14  Code  Gb  pwm.o [1]
PWMOutputInvert         0x00005357   0x16  Code  Gb  pwm.o [1]
PWMOutputState          0x00005341   0x16  Code  Gb  pwm.o [1]
PWMPulseWidthSet        0x0000531b   0x26  Code  Gb  pwm.o [1]
Region$$Table$$Base     0x0000641c          --   Gb  - Linker created -
Region$$Table$$Limit    0x00006448          --   Gb  - Linker created -
Right_tgt               0x20002cad    0x1  Data  Gb  app.o [1]
RoboTurn                0x00005687   0xc6  Code  Gb  app.o [1]
SysCtlClockGet          0x000042d7  0x200  Code  Gb  sysctl.o [1]
SysCtlClockSet          0x00004175  0x162  Code  Gb  sysctl.o [1]
SysCtlDelay             0x0000416d    0x8  Code  Gb  sysctl.o [1]
SysCtlPWMClockSet       0x000044d7   0x10  Code  Gb  sysctl.o [1]
SysCtlPeripheralEnable  0x00004145   0x26  Code  Gb  sysctl.o [1]
SysCtlPeripheralReset   0x000040e5   0x60  Code  Gb  sysctl.o [1]
_Close_all              0x000061cd   0x58  Code  Gb  xcloseall.o [3]
_EncodingSb_Mbtowc      0x00001e7f   0x30  Code  Gb  xencoding_sb.o [3]
_EncodingSb_Wctomb      0x00001e65   0x1a  Code  Gb  xencoding_sb.o [3]
_Files                  0x200001bc   0x20  Data  Gb  xfiles.o [3]
_Fofree                 0x00006049   0x78  Code  Gb  xfofind.o [3]
_Fspos                  0x00005bad   0xd6  Code  Gb  xfspos.o [3]
_Fwprep                 0x00005f71   0xb6  Code  Gb  xfwprep.o [3]
_GenldFull              0x00000ff9  0x24a  Code  Lc  xprintffull.o [3]
_IsdstStr               0x2000008c    0x4  Data  Gb  setlocale.o [3]
_LdtobFull              0x00000c71  0x382  Code  Lc  xprintffull.o [3]
_LitobFull              0x00000b13  0x10c  Code  Lc  xprintffull.o [3]
_LocaleEncoding         0x00001e51    0xe  Code  Gb  setlocale.o [3]
_LocaleReturnString     0x200000ac   0x50  Data  Lc  setlocale.o [3]
_Locale_Profile         0x20000090   0x1c  Data  Gb  setlocale.o [3]
_Locale_aeabi_lconv     0x20000050   0x38  Data  Gb  localeconv.o [3]
_Locale_lconv           0x20000000   0x50  Data  Gb  localeconv.o [3]
_Mbtowc                 0x0000128b   0x20  Code  Gb  xmbtowc.o [3]
_Nnl                    0x00005d35    0xc  Code  Gb  xfgpos.o [3]
_PrintfFull             0x0000011d  0x67c  Code  Gb  xprintffull.o [3]
_Prout                  0x000064b5   0x16  Code  Gb  xprout.o [3]
_PutcharsFull           0x00001243   0x2e  Code  Lc  xprintffull.o [3]
_PutstrFull             0x000007b1  0x35c  Code  Lc  xprintffull.o [3]
_TzoneStr               0x20000088    0x4  Data  Gb  setlocale.o [3]
_Wctomb                 0x00001431   0x1a  Code  Gb  xwctomb.o [3]
__aeabi_cdcmple         0x00001819         Code  Gb  DblCmpLe.o [4]
__aeabi_cdrcmple        0x00001849         Code  Gb  DblCmpGe.o [4]
__aeabi_d2iz            0x00001985         Code  Gb  DblToI32.o [4]
__aeabi_d2uiz           0x000019b1         Code  Gb  DblToI32.o [4]
__aeabi_ddiv            0x00001b8d         Code  Gb  DblDiv.o [4]
__aeabi_dmul            0x00001635         Code  Gb  DblMul.o [4]
__aeabi_dsub            0x00001a0d         Code  Gb  DblSub.o [4]
__aeabi_errno_addr      0x00005d8d    0x6  Code  Gb  errno.o [3]
__aeabi_i2d             0x000019dd         Code  Gb  I32ToDbl.o [4]
__aeabi_ldiv0           0x00001ef1         Code  Gb  I64DivZer.o [5]
__aeabi_ui2d            0x000019f1         Code  Gb  I32ToDbl.o [4]
__aeabi_uldivmod        0x00001545         Code  Gb  I64DivMod.o [5]
__cexit_closeall        0x0000648f         Code  Gb  cexit.o [5]
__close                 0x0000613f   0x1a  Code  Gb  close.o [6]
__cmain                 0x00006469         Code  Gb  cmain.o [5]
__cstart_closeall       0x00006648         Data  Gb  cstart_closeall.o [5]
__data_Aldata           0x20002c20    0x8  Data  Gb  xxmemxmalloc.o [3]
__data_GetMemChunk      0x00001ec5   0x2c  Code  Gb  xgetmemchunk.o [3]
__dwrite                0x00005dad   0x1e  Code  Gb  dwrite.o [6]
__exit                  0x00005f5d   0x14  Code  Gb  exit.o [6]
__iar_Dnorm             0x000017d7   0x42  Code  Gb  xdnorm.o [4]
__iar_Dscale            0x00001879  0x10c  Code  Gb  xdscale.o [4]
__iar_Errno             0x200001e8    0x4  Data  Gb  errno.o [3]
__iar_Locale_lconv_init
                        0x00001dd5   0x3a  Code  Gb  localeconv.o [3]
__iar_Lockfilelock      0x00005d99    0x2  Code  Gb  xsyslock_nop.o [3]
__iar_Mbcurmax          0x00001375    0xa  Code  Gb  xmbcurmax.o [3]
__iar_Memchr            0x0000131d         Code  Gb  memchr.o [5]
__iar_Stderr            0x2000017c   0x40  Data  Gb  xfiles.o [3]
__iar_Stdin             0x200000fc   0x40  Data  Gb  xfiles.o [3]
__iar_Stdout            0x2000013c   0x40  Data  Gb  xfiles.o [3]
__iar_Strchr            0x000012cd         Code  Gb  strchr.o [5]
__iar_Unlockfilelock    0x00005d9b    0x2  Code  Gb  xsyslock_nop.o [3]
__iar_close_ttio        0x00005e0d   0x2e  Code  Gb  iarttio.o [6]
__iar_d2uiz             0x000019bd         Code  Gb  DblToI32.o [4]
__iar_dadd              0x00001ef5         Code  Gb  DblAdd.o [4]
__iar_data_init3        0x000063f5   0x28  Code  Gb  data_init.o [5]
__iar_dlib_perthread_access
                        0x00001fc9    0x2  Code  Gb  xtls.o [3]
__iar_dsub              0x00001a21         Code  Gb  DblSub.o [4]
__iar_dsubStart         0x00001a33         Code  Gb  DblSub.o [4]
__iar_get_ttio          0x00005e3d   0x38  Code  Gb  iarttio.o [6]
__iar_lookup_ttioh      0x00005e79    0x8  Code  Gb  XShttio.o [3]
__iar_packbits_init3    0x00005ea3   0xb2  Code  Gb  packbits_init.o [5]
__iar_program_start     0x00006589         Code  Gb  cstartup_M.o [5]
__iar_sh_Discard        0x00005acd   0x48  Code  Gb  XShHandles.o [3]
__iar_sh_Move           0x00005b15   0x4c  Code  Gb  XShHandles.o [3]
__iar_sh_Pos            0x00005b61   0x44  Code  Gb  XShHandles.o [3]
__iar_sh_stdout         0x00005dcb   0x20  Code  Gb  iarwstd.o [6]
__iar_sh_write          0x00005deb   0x22  Code  Gb  iarwrite.o [6]
__iar_ttio_handles      0x200001dc    0x8  Data  Lc  XShttio.o [3]
__iar_ui2d              0x000019f5         Code  Gb  I32ToDbl.o [4]
__iar_unaligned___aeabi_memcpy
                        0x0000144d         Code  Gb  ABImemcpy_unaligned.o [5]
__iar_unaligned___aeabi_memcpy4
                        0x0000146d         Code  Gb  ABImemcpy_unaligned.o [5]
__iar_unaligned___aeabi_memcpy8
                        0x0000146d         Code  Gb  ABImemcpy_unaligned.o [5]
__iar_zero_init3        0x000012ab   0x22  Code  Gb  zero_init3.o [5]
__low_level_init        0x00006483    0x4  Code  Gb  low_level_init.o [3]
__lseek                 0x00005d41   0x4c  Code  Gb  lseek.o [6]
__vector_table          0x00000000  0x11c  Data  Gb  app_vect.o [1]
__write                 0x00005d9d   0x10  Code  Gb  write.o [6]
_call_main              0x00006475         Code  Gb  cmain.o [5]
_exit                   0x0000648d         Code  Gb  cexit.o [5]
_main                   0x0000647f         Code  Gb  cmain.o [5]
abort                   0x00005f55    0x6  Code  Gb  abort.o [3]
alloMemHeapNode         0x20002acc   0x50  Data  Gb  OSRecTask.o [1]
alloMemHeapTree         0x20002c0c    0xc  Data  Gb  OSRecTask.o [1]
binaryHeapNodeMEM       0x20002bbc   0x20  Data  Gb  OSRecTask.o [1]
binaryHeapTreeMEM       0x20002bdc   0x20  Data  Gb  OSRecTask.o [1]
binaryTree              0x20002c98    0x4  Data  Gb  OSRecTask.o [1]
div                     0x00001e41    0xe  Code  Gb  div.o [3]
ebuf                    0x20002b1c   0x50  Data  Lc  xfiles.o [3]
exit                    0x00006487    0x4  Code  Gb  exit.o [3]
fclose                  0x000060c5   0x7a  Code  Gb  fclose.o [3]
fflush                  0x00005cfb   0x34  Code  Gb  fflush.o [3]
fflushOne               0x00005c85   0x76  Code  Lc  fflush.o [3]
fputc                   0x00006225   0x56  Code  Gb  fputc.o [3]
free                    0x000014c5   0x7a  Code  Gb  xxmemxfree.o [3]
fseek                   0x00006027   0x22  Code  Gb  fseek.o [3]
g_pucRITInit            0x0000627c   0x50  Data  Lc  bsp_display.o [1]
g_pucRow1               0x00006594    0x8  Data  Lc  bsp_display.o [1]
g_pucRow2               0x0000659c    0x8  Data  Lc  bsp_display.o [1]
g_pulGPIOBaseAddrs      0x000062cc   0x48  Data  Lc  gpio.o [1]
g_pulRCGCRegs           0x00006570    0xc  Data  Lc  sysctl.o [1]
g_pulSRCRRegs           0x00006564    0xc  Data  Lc  sysctl.o [1]
g_pulXtals              0x00006170   0x5c  Data  Lc  sysctl.o [1]
g_ulDelay               0x20002c2c    0x4  Data  Lc  bsp_display.o [1]
heapify                 0x00005883   0xb4  Code  Gb  OSRecTask.o [1]
iMove                   0x200001e4    0x4  Data  Gb  app.o [1]
leftNodeIndex           0x0000586f    0xa  Code  Gb  OSRecTask.o [1]
localeconv              0x00001e0f   0x16  Code  Gb  localeconv.o [3]
main                    0x0000536d   0x54  Code  Gb  app.o [1]
malloc                  0x00001381   0xac  Code  Gb  xxmemxmalloc.o [3]
memchr                  0x0000131d         Code  Gb  memchr.o [5]
obuf                    0x20002b6c   0x50  Data  Lc  xfiles.o [3]
printf                  0x00005aa9   0x24  Code  Gb  printf.o [3]
putchar                 0x000064cd    0xc  Code  Gb  putchar.o [3]
remove                  0x00006159   0x16  Code  Gb  remove.o [6]
rightNodeIndex          0x00005879    0xa  Code  Gb  OSRecTask.o [1]
sFileInfo               0x2000297c   0x80  Data  Lc  XShHandles.o [3]
scale                   0x00000c25   0x46  Code  Lc  xprintffull.o [3]
strchr                  0x000012cd         Code  Gb  strchr.o [5]
strlen                  0x000012e5         Code  Gb  strlen.o [5]
swap                    0x00005937   0x36  Code  Gb  OSRecTask.o [1]


[1] = C:\Users\cheny_000\Desktop\a\ce4053\Micrium\Software\EvalBoards\TI\LM3S9B92-EVALBOT\IAR\uCOS-III-CE4053_PG\Flash\Obj
[2] = command line
[3] = dl7M_tlf.a
[4] = m7M_tl.a
[5] = rt7M_tl.a
[6] = shb_l.a

  24 944 bytes of readonly  code memory
   1 378 bytes of readonly  data memory
  12 470 bytes of readwrite data memory

Errors: none
Warnings: none
